208888800804424001ANTONI DI CHRISTIMAM PASCHOAL         02063014787603/2020+0000000000060548JQK510/06/1977888800804424001ANTONI DI CHRISTIMAM PASCHOAL   000231270                    
208888800804424002ODETE DE SOUZA PASCHOAL               02861997281203/2020+0000000000013158JQK502/03/1980888800804424001ANTONI DI CHRISTIMAM PASCHOAL   000231270                    
208888800804424010GIOVANNA DE SOUZA PASCHOAL            04437681789903/2020+0000000000061908JQK507/12/2010888800804424001ANTONI DI CHRISTIMAM PASCHOAL   000231270                    
208888800804428011ENZO OLIVEIRA BASTOS                  05536378287103/2020+0000000000035028JQK504/10/2013888800804428001VIVIANE DE OLIVEIRA             000231340                    
208888800804430001ERIC THOMAZ ALTINES FIGUEIREDO        04465881185503/2020+0000000000056768JQK529/10/1996888800804430001ERIC THOMAZ ALTINES FIGUEIREDO  000231360                    
208888846715924001THAIS ZANON                     00000004045761187103/2020+0000000000125608JQK522/06/1991888846715924001THAIS ZANON                     000231500                    